:020000040000FA
:103C600018F09FE518F09FE518F09FE518F09FE524
:103C700018F09FE5805F20B918F09FE518F09FE5E8
:103C8000E07E0000A03C0000A43C0000A83C000036
:103C9000AC3C000000000000B03C0000B43C000060
:103CA000FEFFFFEAFEFFFFEAFEFFFFEAFEFFFFEA7C
:103CB000CA0300EAC10300EA0E00A0E130109FE54C
:103CC000D3F021E302DC41E2D2F021E301DC41E266
:103CD000D1F021E300D041E2D7F021E321DE41E23F
:103CE000DBF021E322DE41E2DFF021E323DE41E2EB
:103CF00010FF2FE100604000000000000000000005
:103D000000000000000000000000000000000000B3
:103D100000000000000000000000000000000000A3
:103D20000000000000000000000000000000000093
:103D30000000000000000000000000000000000083
:104BA00004E02DE5150000FA0000A0E304F09DE408
:104BB00000000000000000000000000000000000F5
:104BC0000F502DE9250000FA0F50BDE804F05EE219
:104BD00000000000000000000000000000000000D5
:104BE0000F502DE9250000FA0F50BDE804F05EE2F9
:104BF00000000000000000000000000000000000B5
:104C000002F044FE02F08AF902F07BFD0021114817
:104C10004160114841601148416001200D498039CF
:104C2000086048608860C860086148618861C86140
:104C3000086248628862C862086348638863C86320
:104C4000086448648864C86403E000F0E9F800F090
:104C5000FAF8FAE7200140009402400008044000FE
:104C600070B50124E405A56C10202840002804D06C
:104C70001020A06401F0ADFE70BDA564C046FBE746
:104C800070B50124E405A56CE0122840002804D08A
:104C9000E012A06401F0A1FD70BD042028400028AE
:104CA00001D002F06DF80220284000280ED000202C
:104CB00005E0401C282800DD06E00221A164A16C6B
:104CC000022211400029F4D1C046E5E7FF2001305F
:104CD0002840002805D000F07EFFFF200130A064AE
:104CE000DAE70120C0022840002805D000F078FF54
:104CF0000120C002A064CFE7A564C046CCE7000055
:104D0000060000EB320000EB000000000000000095
:104D10000000000000000000000000000000000093
:104D20002C008FE2000C90E800A08AE000B08BE03D
:104D300001704AE20B005AE10000001A240000EB67
:104D40000F00BAE818E04FE2010013E303F0471048
:104D500013FF2FE1AC3B0000CC3B00000000000043
:104D6000102052E27800B0287800A128FBFFFF8ACB
:104D7000822EB0E13000B0283000A12800409045DC
:104D8000004081451EFF2FE10000000000000000F0
:104D90000000000000000000000000000000000013
:104DA0000030B0E30040B0E30050B0E30060B0E397
:104DB000102052E27800A128FCFFFF8A822EB0E189
:104DC0003000A128003081451EFF2FE11FB51FBD17
:104DD00010B510BDF90B00EB0210A0E1FAFFFFFACD
:104DE0001CC09FE50FC08CE001001CE30DE08F129A
:104DF0000FE0A0011CFF2FE101C08FE21CFF2FE19B
:104E000003F00EF8B4FDFFFF03002DE9EFFFFFFAFA
:104E10000300BDE8110C00FA0000000000000000D3
:104E200010B510480078002800D110BD00200D49B1
:104E3000087000F025F802F053FD02F0D1FC02F0FA
:104E4000D3FBC046F1E710B507480078002800D131
:104E500010BD00200449087002F022FA02F0F8FAAE
:104E6000C046F5E78100400050004000000000000F
:104E70000000000000000000000000000000000032
:104E8000FEB500240025002001904249886B42496C
:104E900003F046EB00D2C8243E49886B3F4903F03B
:104EA00010EA01D2C724E4433D49886B3A4903F034
:104EB00038EB00D2C8253A49886B384903F000EA3C
:104EC00001D2C725ED433749886B334903F028EBFE
:104ED00002D2FF20F53001903249886B2F4903F050
:104EE000F0E901D2304801903048006803F078E9D9
:104EF00000902F4800688600019830182C4E766983
:104F00007700F619831B2B4800688000294E7669CC
:104F10007700F619801B221A274800688000264E69
:104F200076697700F619801B291A009802F00DF9AE
:104F3000204800691F4948610800C06808610800EE
:104F40008068C860080040688860080000684860A1
:104F500019480069184948610800C06808610800DC
:104F60008068C86008004068886008000068486081
:104F70000F4800690E4948610800C06808610800D0
:104F80008068C86008004068886008000068486061
:104F9000FEBD0000140340000000F0410000F0C11D
:104FA000A0014000880440000CFEFFFF54004000B8
:104FB0008803400014024000A000400000000000F0
:104FC0000CB5002101910CE00021009102E0009954
:104FD000491C0091104A00999142F8DB0199491C43
:104FE000019101998142EFD30CBDC0460100401EE2
:104FF0000029FBD1704730B503001A0008E0108883
:105000000406240C050A2C4320001080921C491E23
:105010000029F4DC30BD0000DC05000000000000C9
:10502000C0460168C90F0029FBD1704700B5412275
:1050300052041000FFF7F4FFFB49D06908400B2130
:1050400009034018D0611000FFF7EAFF672000064F
:1050500010601000FFF7E4FF3320400610601000DE
:10506000FFF7DEFF00BD00B5412252041000FFF73C
:10507000D7FF1D20800610601000FFF7D1FFEA491E
:10508000D0690840D0611000FFF7CAFF6720000612
:1050900010601000FFF7C4FF00BD00B541225204AC
:1050A0001000FFF7BDFF1D20800610601000FFF705
:1050B000B7FF106900BD00B5412252041000FFF790
:1050C000AFFF1078012189070840800735210906C4
:1050D000084310601000FFF7A3FF00BD00B50200F9
:1050E0001000FFF79DFF6320000610601000FFF71F
:1050F00097FF137D1000FFF793FF332040061060E9
:105100001000FFF78DFF107D0002C318180000BDCE
:1051100041214904C969090909010207120F114314
:1051200041225204D161704770B541246404E5699D
:105130002000FFF775FF302128008843050020205C
:105140000543E5616420FFF750FF2000FFF768FF8B
:1051500070BD00B5412252041000FFF761FFD36912
:10516000302118008843030010200343D3611078D6
:1051700001218907084080071B2149060843106068
:105180001000FFF74DFF00BD10B50400012C02D147
:10519000FFF7DFFF03E0042C01D1FFF7C5FF10BDCF
:1051A00000B5412252041000FFF73AFFD3699E4830
:1051B00003408B2000030343D36167200006106087
:1051C0001000FFF72DFF00BD70B541246404FFF708
:1051D00064FF05009548854213D1FFF744FFFFF7B0
:1051E000DFFFFFF768FF0520FFF7EAFE1021E06907
:1051F0000843E0610420FFF7C7FF0120FFF788FFA5
:1052000007E0FFF713FF0120FFF7BEFF0820FFF7BD
:105210007FFF70BD00B502000EE01000FFF700FF39
:105220006320000610601000FFF7FAFE137DD80718
:10523000C00F002800D100E0EFE7C04600BDF8B580
:1052400005000E0041277F04002E06D0012E06D057
:10525000022E06D0032E08D105E00D2405E00E2411
:1052600003E00F2401E01024C046C0463800FFF7D9
:10527000D7FE2802000A21060843032149070843F4
:1052800038603800FFF7CCFE3800FFF7C3FFF8BDE9
:10529000F0B58BB004000D0017001E0003A80290AB
:1052A00001962000FFF7BCFE680940010002000AD9
:1052B00005210906401801214907401821780122DB
:1052C000920711408907084320602000FFF7A8FEDD
:1052D000082605E0A168029801600298001D02906E
:1052E0003000761E0028F5D1E806C00E03AA81180A
:1052F0003800019A02F074EB0BB0F0BDF7B584B042
:1053000004001600412040040390059FE006C00EF3
:1053100020210D1AE006C00E00280CD0AE4208D3A2
:105320002B003A0021000398FFF7B2FF64197F19A0
:1053300002E0002500E00025701BC006C00E0190B1
:10534000701B40090290002000900AE020233A00E0
:1053500021000398FFF79CFF203720340098401C61
:105360000090029900988842F0DB0198002805D04F
:105370003A002100019B0398FFF78AFF07B0F0BDB8
:1053800010B502001300891005E001CB401C002875
:1053900001D0002010BD0800491E0028F5D10120D1
:1053A000F8E710B5C0B00400240A2402FF2201323D
:1053B00069462000FFF7A2FFFF2101316846FFF791
:1053C000DFFF40B010BDF0B5C3B007000C00200AED
:1053D000019025062D0E0020429015E0FF2201329B
:1053E00002A93800FFF78AFFFF21013102A8FFF769
:1053F000C7FF0600002E02D1300043B0F0BDFF37DA
:1054000001374298401C4290019942988842E5D366
:10541000002D0DD02A0002A93800FFF76FFF2900E8
:1054200002A8FFF7ADFFE8E7FF0300FC1340C80048
:105430000120E2E7FFB589B004000D001E0001AFB6
:10544000FF22202101A802F07CEBE906C90E01AA87
:10545000881832000B9902F0C4EA2000FFF7E0FD43
:10546000082601E001CF60603000761E0028F9D1E7
:105470002000FFF7D5FD680940010002000A032162
:105480008906401801214907401821780122920716
:1054900011408907084320602000FFF7C1FD0DB0CF
:1054A000F0BDF7B584B0050016004120400403901C
:1054B000059F20480078002801D107B0F0BDE8061C
:1054C000C00E20210C1AE806C00E00280CD0A642FF
:1054D00008D323003A0029000398FFF7ABFF2D19EA
:1054E0003F1902E0002400E00024301BC006C00E7B
:1054F0000190301B40090290002000900AE0202318
:105500003A0029000398FFF795FF203720350098CF
:10551000401C0090029900988842F0DB0198002816
:1055200005D03A002900019B0398FFF783FF012073
:10553000C3E7000021004000000000000000000060
:1055400001000120C005002905D0C313026C9A4355
:10555000D218026404E0FF230133026C9A43026410
:1055600001231B06026C9A430264826C1B141A43CB
:105570008264704730B502000B000120C005002A8C
:1055800001D1082100E00B21002B05D001258D4021
:10559000046C2C43046404E001248C40056CA54396
:1055A000056409252D06046CAC43046401248C4079
:1055B000846430BDF8B504000E00002C01D1F7481A
:1055C00000E0F7480500002C01D10C2000E0C020CD
:1055D0000006000AC043002C01D10C2100E0C021CC
:1055E0000906090E8843002C01D10C2100E0C021DE
:1055F00009068843002C01D1022100E00121C900E5
:10560000E84A891809680840002C01D1022100E00D
:105610000121C900E34A89180860002C01D1022049
:1056200000E00120C000DF4940180068002C01D1D3
:105630000C2100E0C0210906090A0843002C01D111
:10564000022100E00121C900D64A89180860012022
:10565000C005006922010121914088430121C9054B
:1056600008613100D04802F0BCEA0700032102F0D3
:10567000B8EA401E8005000C0121490740180721A7
:1056800089060843233028604901286808432860B8
:10569000C0206860F8BD002801D1C44A00E0C44AB7
:1056A0001100C0468A685207D20F002AFAD070470C
:1056B000FFB581B006001700FF2000023040001245
:1056C00000900098002801D1B44800E0B4480500DB
:1056D0000098002801D1B54800E0B5480400002139
:1056E0000098FFF747FF0A9820600B98606002213E
:1056F000A0688843801CA060002020733F21C9015E
:10570000A06888430499C9013F22D201114008438F
:10571000A060A06840084000A060A0680002000AE5
:1057200002990906090E09060843A060FF21090431
:10573000A06888437106490AFF22120411400843F9
:10574000A0602761676107214903A0688843A060C2
:105750000421A0688843A0607821A06888430830AD
:10576000A060686840084000686001210098FFF769
:1057700001FF6868C0218843686068680843686002
:10578000A0680002000E4000A8606868012189023C
:1057900088434018686005B0F0BDFCB504000D00FA
:1057A00016001F00002000903B00320029000190ED
:1057B0002000FFF77DFFFF21090221400812FFF7BB
:1057C0006AFFFCBDFFB581B006001700FF20000294
:1057D0003040001200900098002801D16F4800E08E
:1057E0006F4805000098002801D1704800E070481B
:1057F000040000210098FFF7BDFE0A9820600B9876
:1058000060600221A0688843801CA0600020207393
:105810003F21C901A06888430499C9013F22D201F0
:1058200011400843A060A06840084000401CA060F0
:10583000A0680002000A02990906090E0906084339
:10584000A060FF210904A06888437106490AFF226D
:10585000120411400843A0602761676107214903D2
:10586000A0688843A0600421A0688843A0607821D4
:10587000A06888430830A0606868400840006860FD
:1058800001210098FFF776FE6868C02188436860B0
:10589000686808436860A0680002000E4000A860C5
:1058A00068680121890288434018686005B0F0BD2E
:1058B000FCB504000D0016001F00002000903B0006
:1058C0003200290001902000FFF77CFFFF21090230
:1058D00021400812FFF7DFFEFCBDF8B50700002FDE
:1058E00001D12E4800E02E480500002F01D12F489D
:1058F00000E02F48040028680121890688432860B9
:105900006E68207A4006000F030002F00AEB08F7E9
:105910000521709FB1D5F6F76868C005C00F002853
:105920000DD0A068000EA860224806406E600020DE
:1059300020737821A06888431030A06007E0072119
:105940004903A0688843012149034018A0600AE187
:105950006868C005C00F002840D0207AC007C00F7B
:10596000002829D1207B2189C904890E884208D1C9
:105970007821A06888432030A060012040020643BF
:1059800028E07821A06888431830A060217B6069F6
:10599000405CA860207B401C20731BE00004F000EA
:1059A0000009F0000005F0000024F400FC044000B1
:1059B00014054000FEFBFFFFA0680002000E40003F
:1059C000401CA8607821A06888432830A06005208A
:1059D00000020643760876006E6007E0072149035F
:1059E000A0688843012189034018A060BBE0686873
:1059F000C005C00F002820D0207B2189C904890E52
:105A000088420FD10221A0688843A0600421A068C9
:105A10008843001DA0600020FFF792FD0120400296
:105A2000064306E0217B6069405CA860207B401C47
:105A30002073760876006E6007E007214903A068AE
:105A40008843032149034018A0608CE068686C49D2
:105A5000084068600221A0688843A0600421A06813
:105A60008843001DA06000213800FFF783FD7AE025
:105A70006868C005C00F002815D000202073782169
:105A8000A06888433030A0606E68C02006430120C3
:105A900000033040002802D0FF200130064359485F
:105AA00006406E6007E007214903A0688843012192
:105AB000C9034018A06056E06868C004C00F002801
:105AC0002BD0207B401C2189C904890E884216D125
:105AD0000221A0688843A0600421A0688843001DBB
:105AE000A06000213800FFF745FDFF2101313000A3
:105AF000884306004800064304E017E028E0FF2042
:105B000001300643760876006E60A868227B216922
:105B10008854207B401C207307E007214903A068BC
:105B20008843052149034018A0601CE06868344997
:105B3000084068600221A0688843A0600421A06832
:105B40008843001DA06000213800FFF713FD0AE024
:105B500068682B490840686007214903A0688843AA
:105B60004018A060C046C04620890004400F0028AD
:105B700016DD012040020643234806406E600221E4
:105B8000A0688843A0607821A0688843A0600421B1
:105B9000A0688843001DA06000213800FFF7EAFCE0
:105BA00028680121890608432860207A4007C00F31
:105BB00000280FD020890004400F002805DD606810
:105BC000002807D06068804704E02068002801D0E2
:105BD00020688047F8BD10B50020FFF77EFE10BD9D
:105BE00010B50120FFF779FE10BD0100002901D199
:105BF000064800E00648020090680004400F704725
:105C0000FEF9FFFFFEFBFFFFFEF3FFFFFC04400079
:105C1000140540000000000000000000000000002B
:105C200010B50124E40501202060002060600220FE
:105C3000FFF7DBF92111606D88434018606589002A
:105C4000606D88434018606510BD70B50500F12691
:105C500036040124E4050020E065594870622111F2
:105C6000606D884360658900606D884360650520CC
:105C7000FFF7BBF95248803870621420FFF7B5F97E
:105C8000062160688843690006221140084360606D
:105C900060684008400060600320206070BD70B5FF
:105CA0000124E405474D20788007800F012800D1AA
:105CB000454D20788007800F002801D17D252D02D9
:105CC00020794007800F411C280001F08AEF70BD49
:105CD0000121C90508788007800F032806D10879BB
:105CE0004007800F002801D1012070470020FCE709
:105CF0000121C90508788007800F032805D108799C
:105D00004007800F012800D170470020FCE7416C5C
:105D100049084900491C416470470222416C914383
:105D2000891C41647047416C4908490041647047CF
:105D30000222416C91434164704710B50124E4058F
:105D40000021982001510020E065012180200151AF
:105D50000520000220670221606A8843801C60627F
:105D60000020A0611120E0671548F1210904486274
:105D70006111206D8843401820650A20FFF735F92E
:105D8000A110206D8843401820650220FFF72DF9EF
:105D90000B488038F121090448621420FFF725F9E7
:105DA00041204004C0690009000108304121490434
:105DB000C8612000FFF7B1FF2000FFF7A8FF10BD6A
:105DC000807D401900D8B8050024F40000000000D0
:105DD00000000000000000000000000000000000C3
:105DE00070B503000C000020C04606E08500655930
:105DF00086009D51451C2806000E9042F6DB70BDC2
:105E000030B50100FE4A002081242404E468A40780
:105E1000A40FA31CC04605E00C5C85005451441C33
:105E20002006000E9842F7DB30BDF0B587B00500C4
:105E30000E001822F34901A801F042EEA80001A9C2
:105E400008580090002481200004C0688007800F5B
:105E5000871C022F00DB0127002406E0315DA20031
:105E600000988150601C0406240EBC42F6DB07B08B
:105E7000F0BD81200004006802210843812109044B
:105E800008607047812000040068FD2108408121DE
:105E900009040860704700B5FFF7EBFF8020D84980
:105EA0006C31886100204861812000040068012174
:105EB00008438121090408600120D1496C314861FF
:105EC00000BD00B5FFF7D5FFA020CD496C3188613A
:105ED00000204861812000040068FE2108408121E3
:105EE000090408600120C6496C31486100BD10B545
:105EF00085B00400230002F014E8060416171819F0
:105F00001A530522C049BE483838FFF769FF0522F9
:105F1000BD49BB48FFF764FF0522BC49B848243897
:105F2000FFF75EFF3DE0C046C046C046C0460522C2
:105F3000B6496846FFF754FF022C04D1B048143824
:105F40004068009013E0032C04D1AD4814388068F9
:105F500000900CE0042C04D1A9481438C0680090CB
:105F600005E0052C03D1A6481438006900900522ED
:105F70006946A3483838FFF733FF05226946A04831
:105F8000FFF72EFF0522A1496846FFF729FF3720BA
:105F90000290052269469A482438FFF721FF00E065
:105FA000C046C04605B010BD10B502004023944C59
:105FB0006C34A361002006E0914B6C33DB69135411
:105FC000431C1806000E8842F6DB00238C4C6C3410
:105FD000A36110BD10B502006023894C6C34A3612D
:105FE000002006E0135C864C6C34E361431C180609
:105FF000000E8842F6DB0023814C6C34A36110BD97
:1060000010B5020068237E4C6C34A361002006E0CA
:10601000135C7B4C6C34E361431C1806000E884211
:10602000F6DB0023764C6C34A36110BD30B5030061
:1060300014006834724D6C35AC61002006E01C5CC5
:106040006F4D6C35EC61441C2006000E8842F6DB77
:1060500000246B4D6C35AC6130BDF8B5F1242404DF
:106060006B4840690121C905084307006061694820
:10607000FEF7BBFF0121C905380088436061644811
:106080004068802188430700606063486061C020E9
:10609000005962490840C0210851C02000596103DD
:1060A0000843C02108519420005901210904884364
:1060B0004118942001515A20FEF782FFA56C5848E0
:1060C0002840050C9420005901210904884394219B
:1060D000085129007D20400201F0E2EE0A38C60591
:1060E000F60DC02000594D490840C0210851C0207C
:1060F000005971050843C021085180203843606071
:10610000F8BDF8B5F1263604414F00240FE0A00099
:106110003D582011012800D108E02011002802D1AB
:10612000A00040490D50A0003550C046641C502CC2
:10613000EDDBFFF792FFF8BD10B5F1242404FFF763
:10614000E0FF00200121C90508623749A020015164
:106150003649AC2001513649EC2001512848EC3039
:10616000406A102188432649EC31486204223149B3
:1061700023483430FFF734FE04222F4920484430AE
:10618000FFF72EFE8120000400680C218843812146
:1061900009040860080000680C21084381210904F3
:1061A00008603F20486088600320C86000200861C4
:1061B000072088610800806928218843812109041B
:1061C000886105221D490E483838FFF709FE05226F
:1061D0001B490B482438FFF703FE112008491439E6
:1061E0004860122088601320C860142008610522CE
:1061F00012490348FFF7F4FD20200149143921E03A
:106200005400810064880000C0860000D48600002D
:106210002487000070170000CB0A4905FFFF1FC04C
:106220000000FF1F2C0540006343040371200A0097
:106230008812543FA0860000B0860000FC86000053
:10624000E88600008862C862086348638863C863A0
:106250003F20CE49086007204860FFF713FE10BDBD
:1062600010B50100F12212040B0001F05AEE0906EC
:10627000080A0C0E10121416180000200FE004205B
:106280000DE008200BE00C2009E0102007E01420AE
:1062900005E0182003E01C2001E01F20C046C04696
:1062A000BB4B1B691F242406A343B94C2361230065
:1062B0001B6901246407A343B54C236123001B69B8
:1062C000C406E4082343B24C236123001B69136115
:1062D00010BD70B50500F124240490200059C009B8
:1062E000C0016906490E08439021085194200059C5
:1062F000010D090594200151C820FEF761FE94208C
:1063000000590321090308439421085170BD70B559
:106310000500F124240494200059012149038843F5
:1063200094210851942000590121090388439421A4
:10633000085190200059C009C0016906490E084360
:10634000902108510A20FEF73BFE942000590121BC
:106350004903884341189420015100590121090340
:10636000884341189420015100590121C9028843F2
:1063700041189420015170BDF12000049421095866
:106380000122D202914394221150942109580122F2
:10639000520391439422115094210958012212036F
:1063A0009143942211507047F8B505000E00F12476
:1063B0002404942000590721C902884394210851DC
:1063C00090200059C009C0016906490E0843902178
:1063D0000851942000590121490388434118942011
:1063E0000151005901214903884394210851942007
:1063F0000059012149038843411894200151005953
:10640000012189028843411894200151005901213A
:106410004902884394210851062171430800FEF780
:10642000CFFD94200059012149028843401894214E
:106430000851A06D01F024EF0700606D01F020EF1E
:1064400000903800009901F0FCED07003800F8BD1D
:106450004E4980310968702211434C4A80321160E4
:106460004C49896804229143091D4A4A916081215F
:10647000090409687022114381221204116011007D
:106480000968814311604349096804229143091D49
:10649000404A1160704770B505000E0014002800D6
:1064A00080308121090448613220FEF79EFDFFF70C
:1064B00008FDA02035494031886180208861702026
:1064C000324980310860C04630488030C0682021A1
:1064D00008400028F8D12106090E3000FFF790FD92
:1064E0002106090E3000FFF78BFD2106090E300052
:1064F000FFF786FD70BD10B50400200080308121BB
:10650000090448613220FEF770FDFFF7C4FCA020AB
:106510001E49403188618020886170201B4980318C
:10652000086010BD70B504000D001600200080301A
:10653000812109044861FFF7C4FCA02013494031C0
:106540008861802088617020104980310860C046D1
:106550000E488030C068202108400028F8D131065C
:10656000090E2800FFF736FD70BDF8B507000C00D6
:1065700015001E003800FFF7BEFF3206120E290676
:10658000090E2000FFF752FDF8BD000080008100D9
:106590002C054000400080000000000000000000CA
:1065A00001000120C00500290AD0C312026C9A43E1
:1065B000D21802644301026C9A43D218026408E0C4
:1065C00001231B03026C9A4302641B04026C9A436E
:1065D0000264704730B50200AD48002907D054006E
:1065E000641C0125A54003682B43036006E05400AA
:1065F000641C0125A5400368AB43036030BDFFB5B3
:1066000081B004001500A24F0120C0050090A14EEA
:106610000098C16B0320000281430098C163009879
:10662000C06B0299C907890D01430098C16300211D
:10663000A200300018308150A1000C3845500120D4
:10664000000485420BD3411EE2003800083081501F
:10665000481C291AA20030001830815003E0E100E4
:1066600038000830455020000499FFF7B3FF00219F
:10667000A2003000243081500020A1007050620040
:106680000121914038680843386005B0F0BD70B50D
:1066900006000C0015002B00220000213000FFF73F
:1066A000AEFF70BD70B506000C0015002B00220077
:1066B00001213000FFF7A3FF70BD70B50100754ADE
:1066C0008800105A030472480830CE0080194368CD
:1066D000880015586E480830CE00801944689C42E6
:1066E00005D28800105800032609801970BD2803C0
:1066F0001E098019FAE770B50400664D644EA000CB
:106700002858401CA1006850A100280018304058AB
:10671000002831D1A10028000C3040580121090483
:10672000884210D3491EE200300008308150A10099
:1067300028000C30405801210904411AA200280009
:10674000183081500CE0A10028000C304158E200C4
:106750003000083081500021A200280018308150FC
:10676000A100280024304058002826D0A20029008B
:1067700024318858804720E0A10028001830405874
:106780000121090488420BD9A10028001830405883
:1067900001210904411AA2002800183081500CE0A0
:1067A000A100280018304158E20030000830815024
:1067B0000021A20028001830815070BD10B50020C3
:1067C000FFF799FF10BD10B50120FFF794FF10BD32
:1067D00010B50220FFF78FFF10BD70B52C4D6C680F
:1067E000E007C00F002801D0FFF7E8FF022020409B
:1067F000002801D0FFF7E7FF04202040002801D047
:10680000FFF7E6FF6C6070BD8300224A2432D1504E
:106810007047010088001F4A1058704782001D4BC6
:106820009950704710B51A4944000123A3400A68E3
:106830009A430A6010BDF8B504000D001600144F0D
:1068400002E0002D00D0A8470121A140786808404F
:106850000028F6D00121A140786808437860200024
:10686000FFF7E0FF002E00D0B047F8BD70B505007F
:106870000C002800FFF721FF060006E02800FFF7C4
:106880001CFF801BA04200D300E0F7E7C04670BDAC
:10689000000AF0008C05400000000000000000002D
:1068A0000120FA4908700020F9490860F949086098
:1068B000F9490870F949087070470020F8490860E4
:1068C000F8490860F8490870F8490870704770B5D1
:1068D0000500F74CF7480069F7490840F549086199
:1068E0002900F64801F07CE9C004C00A18210843D9
:1068F0002060F348606000200121C905C8600321C1
:106900002068084320602000006902218843801C21
:1069100021000861080000692021884320302100FF
:106920000861080000694021884340302100086167
:10693000E4480068102188431030E2490860C91318
:10694000E14801F00EE9FFF7ABFFFFF7B6FF70BDBE
:1069500030B500210BE082891204130ED34A14785B
:106960001278521CD14D2A70D74A1355491C82689F
:106970009202D20F002AEED1CA4A12685218C94BAD
:106980001A6030BD70B50821C24B1B68C04C24682A
:106990001B1B8B4204D2BF4B1B68BD4C2468191BC8
:1069A000BB4B1B685B18BA4C2360C14A00200DE04A
:1069B000B94C25782478641CB74E3470C34C635DA1
:1069C000D468240A24021C43D460401C8842EFD3BC
:1069D00070BD30B5B64C257D42202840002803D03C
:1069E00065612000FFF7B4FF2020284000280CD06C
:1069F0006561A7480068A7490968884203D101205A
:106A0000A249087001E0FFF7BDFF656130BD00B528
:106A10009E480078002804D000209C490870FFF7A9
:106A2000B1FF00BD70B504000D0000260CE0217818
:106A30009A4802780078401C984B1870A3488154FB
:106A4000641C701C0606360EAE42F0DB91480068EE
:106A5000401990490860FFF7DAFF70BD01B50121C8
:106A60006846FFF7DFFF08BD884800787047C046DA
:106A7000864800780028FBD070478D49C04688685A
:106A80008002C00F0028FAD088890004000E7047E9
:106A900070B50400200000F073FF05062D0E2900DC
:106AA0002000FFF7BFFF70BD30B503000A000020D3
:106AB00010E00724241AA5001C00EC402107090F50
:106AC000092903D80C003034145402E00C00373488
:106AD0001454401C0828ECDB30BDF8B506000D004E
:106AE00000200090092400272BE0A00078490858D6
:106AF000B04207D9009801281CD1302238007F1CF1
:106B00002A5417E0A000724A1158300001F0C8E979
:106B100030300206120E38007F1C2A5400980028DC
:106B200001D101200090A000694A1158300001F005
:106B3000B8E90E00641E012C03DA30003030E8554D
:106B400000E0D2E7C046F8BD70B504000D00002C8F
:106B500004DA691C6042FFF7C0FF03E0290020004F
:106B6000FFF7BBFF70BD01005148C0468268D202EA
:106B7000D20F002AFAD0C268120A12020B061B0EAC
:106B80001A43C260704730B504000D0003E020785E
:106B9000641CFFF7E8FF28006D1E0028F7D130BD08
:106BA0003EB504000020009001900290694620004C
:106BB000FFF7CAFF6846FFF76BFF3EBD10B545A063
:106BC000FFF766FF10BD10B5324801683F48FFF778
:106BD000DAFF2F480068FFF7E3FFFFF7EFFF2D48CC
:106BE0000068FFF7DDFFFFF7E9FF2C480078FFF7AB
:106BF000D7FFFFF7E3FF28480078FFF7D1FF10BD6C
:106C00003EB50400002000900190029069462000EB
:106C1000FFF74AFF6846FFF73BFF3EBD3EB5040065
:106C2000002000900190029069462000FFF755FF78
:106C30006846FFF72DFF3EBD3EB505000C00002065
:106C400000900190029069462800FFF72DFF08216F
:106C5000091B6A468818FFF71BFF3EBD30B50400CC
:106C60000D002006000EFFF7F9FE200030BD30B504
:106C70000500C046FFF701FF0400601C0028F9D0A2
:106C80002006000EFFF7EAFE200030BD2500400080
:106C90003800400034004000310040003000400027
:106CA00044004000400040003F0040003E004000E3
:106CB0000003F0000005F000FCFFFCFC0024F400E1
:106CC0000110000040008000BC054000BC064000F0
:106CD000808800000D0A0000000000000000000095
:106CE00000210122D205D1610F21090508602D2163
:106CF000490441180F2212051160A5210904411809
:106D0000116070470120FFF7EBFFC046FEE71CB59E
:106D10000020019087200090FFF7A9FE0120C00508
:106D2000FFF706F80120C005FEF7FDFF04226946C3
:106D30008320C002FEF7E2FA009800280DD001205F
:106D4000FEF722FA00218320C002FEF778FA04221F
:106D500001A98320C002FEF7A4FB04226946832018
:106D6000C002FEF7CBFA0098FFF74AFFFFF726FFB5
:106D70000120FFF7B5FFC046FEE70000000000005D
:106D800070B5174800680406240E402020400028F3
:106D90001AD01348006905062D0E212D0FDA29009F
:106DA0001048FFF701F929000E4800F0E5FB00202C
:106DB0000B494039486101200B49087003E08020ED
:106DC000074940398861C04610202040002803D080
:106DD000A0200349403988610148046070BD00006B
:106DE00000018100BC07400050004000000000008E
:106DF0000000000000000000000000000000000093
:106E000010B54A4A00210AE0484AC0461300541E01
:106E10002204120C002BF9D14B1C1904090C8142DD
:106E2000F2DB10BDF8B504000D00160001270A20A2
:106E3000FEF7DBF833002A0021006820FEF738FD5A
:106E40003800F8BDF8B504000D00160001270A202F
:106E5000FEF7CBF833002A0021006820FEF79DFCE6
:106E60003800F8BDF8B504000E000425FF20F53009
:106E7000FFF7C6FF802168460170012269466B203A
:106E8000FFF7E0FFFF20F530FFF7BAFF0321684668
:106E90000170012269466B20FFF7D4FF3220FFF713
:106EA000AFFF21007D20C00000F09AEE401E0106D9
:106EB000090E68460170012269461920FFF7C2FFDA
:106EC0003220FFF79DFF68460570012269461A20AF
:106ED000FFF7B8FF3220FFF793FF182168460170D3
:106EE000012269461B20FFF7ADFF3220FFF788FF24
:106EF000102168460170012269461C20FFF7A2FF9D
:106F00003220FFF77DFF05216846017001210170E5
:106F1000012269463820FFF795FFF8BD10B5FF2123
:106F20000131FF20F530FFF79DFF10BD204E00001E
:106F30000000000000000000000000000000000051
:106F400070B504000021BDE0B84A505C01228240C7
:106F50001206120E002A12D0012282401206120AD4
:106F6000D243012383401B061B0E9A430123834017
:106F70001B069A43AE4B9B681A40AD4B9A600122A8
:106F800082400F231B021A40002A14D001228240A3
:106F90001204120E1204D243012383401B041B0E61
:106FA0009A43012383401B121B069A43A04B1B6884
:106FB0001A409F4B1A6005280ED10122D205D26BD0
:106FC00070239A430123DB05DA631A00D26B402356
:106FD0001A435B04DA631BE0082815DA82000123F8
:106FE000DB05D218D26AD208D20083000125ED0554
:106FF0005B19DA6282002B00D218D26A04231A438A
:1070000083005B19DA6203E000220123DB059A6149
:1070100005280BDC06224A437D235B01D2181204AB
:10702000120CC300834D5B199A602FE008282DDBFA
:1070300006224A437D235B01D218521E12117E4B59
:107040009A6006224A437D235B01D218521E120722
:10705000120E794BDA600025774B10330200083AA4
:107060000C2672439D500200083A72439A185560EC
:1070700006224A437D235B01D2189502AD0A6E4B6E
:1070800010330200083A72439A189560082807DA0C
:10709000684A126885000123AB401A43654B1A60A9
:1070A00008280EDB0122824002231A43031D01251A
:1070B0009D402A43604B403B1B681A435E4B403B5C
:1070C0001A60491C042900D23EE770BDF0B50300E8
:1070D00000222CE0554CA05C940019597D246401D9
:1070E000A14200DB611E002900DA0021082813DA22
:1070F000C400504D6419A4682404240CC5004D4EEE
:10710000AD19AC60C40035006419A4680D042C43AB
:10711000C500AD19AC6009E08E02B60A464D1035C7
:107120000400083C0C277C432C196660521C042A7E
:10713000D0D3F0BD03008B4201DA080070479342C0
:1071400001DD1000FAE71800F8E7FFB581B005008F
:107150000E0017007D2040012D18A81BC1190498AE
:10716000081A36490860A81BC11B0498081833493F
:107170004860A819C1190498081830498860A819EE
:10718000C11B0498081A2D49C860080000680090C7
:1071900001200CE08100294A525800998A4203D903
:1071A0008100264A51580091411C0806000E04280F
:1071B000F0DB002425E07D218901009888420ADD6A
:1071C000A0001E4909587D2292010098801A081AD1
:1071D000A1001A4A5050A100184A50587D2292012D
:1071E0001749FFF7A7FFA100144A5050A000110053
:1071F00008587D214901401AA1005050601C040626
:10720000240E042CD7DB0F480078002803D00E484A
:10721000C0780A2805DA00200849086048608860BC
:10722000C8600648FFF752FF05B0F0BDC0880000F7
:107230000005F0000001F0004008F000DC0740000D
:107240000410000090004000EC0740000000000027
:10725000000000000000000000000000000000002E
:1072600070B504002000803800F0EAEF0500E7491F
:10727000280001F056E905D2E449280001F090E920
:1072800005000BE0E249280001F01AE805D2DF49C9
:10729000280000F056EE050000E00025280070BD33
:1072A000F8B5DC490878FFF7DBFFDB498863D9498B
:1072B0004878FFF7D5FFD9498863D6498878FFF722
:1072C000CFFFD7498863D348C0780A280FDDD1495A
:1072D000C87800F0D6EF06004121090601F040E829
:1072E0000500D04900F02CEECF49086002E00020F4
:1072F000CD49086000243AE0CC48005D4006000E0D
:10730000CA490855C34800792041C007C00F00286A
:107310000ED00800005D01210843C449085508004B
:10732000005D02210840002802D10120C049085513
:10733000C048005D4006000EBE490855B54840797A
:107340002041C007C00F00280ED00800005D0121B9
:107350000843B84908550800005D0221084000288C
:1073600002D10120B4490855601C0406240E062CE5
:10737000C2DBB1480078012802D10020AE49087074
:10738000AB480078012823D10020A9490870AB48F8
:107390000068401CA949086008000068022817DB43
:1073A0000C20009000F0C3F900F0C5F90120A449B9
:1073B0000870FDF7E9FE012269461F208003FEF7F1
:1073C00070F800209E490870FFF79CFCC046FEE75D
:1073D00099484078012802D1002097494870964882
:1073E0000079012802D100209349087192488078E1
:1073F000012802D10020904988708F48C078012868
:1074000002D100208C49C87089484078012802D1F7
:1074100000208749487086480079012802D1002061
:107420008349087182488078012802D10020804970
:1074300088707F484079012802D100207C4948713A
:107440007B48C078012802D100207949C870F8BD76
:10745000002026E06F49095C462907DA7949095C72
:10746000794A12781143784A117006E075490A5C2E
:10747000754909789143744A11706649095CB429C9
:1074800007DD7249095C704A127811436E4A117027
:1074900006E06E490A5C6C49097891436A4A1170AA
:1074A000401C0428D6DB68490978002909D06849BE
:1074B0000978FA290ADA66490978491C644A117080
:1074C00004E00021624A11705F4A11706149097835
:1074D000002921D06049097800290DD05A4909783E
:1074E00040221140402907D100215B4A1170594ABE
:1074F00011700121594A11705949097800290BD09E
:107500005149097880221140802905D10121524A30
:1075100011700021524A11704D49097864292AD10D
:107520004E490978002909D0474909785522114068
:10753000552912D10021494A11700EE042490978BB
:1075400020221140002908D03F49097840221140EB
:10755000002902D00121414A11703B490978962245
:107560001140962902D101213E4A11700021364A6C
:107570001170374A1170704710B500230278AA2A9B
:1075800002D14278AF2A00D010BD002206E0845C10
:10759000E41823061B0E541C2206120E4C1E9442A5
:1075A000F5DC4218203AD27F9A4200D0ECE7002264
:1075B0002D4C22808278FF24A21A164CA270C27829
:1075C000FF24A21A134CE2700279FF24A21A114C74
:1075D00062704279FF24A21A0E4C227082792271C5
:1075E000C2796271C046CFE71F480088FF21F5319C
:1075F000884204DD00201C490880184908701A4898
:107600000088401C18490880704700000000704145
:10761000000070C1EC07400014034000A0014000CE
:107620008804400000004844540040005E004000D0
:1076300064004000580040006A00400074004000B0
:1076400021004000E088000079004000E48800004C
:107650007800400070004000720040009000400040
:107660007100400051004000920040000000000006
:10767000000000000000000000000000000000000A
:1076800010B501202F4908702F4C08212000FDF76C
:10769000B2FC0220205E2D4900F092EA0021615EDA
:1076A00048422B4900F08CEA0421615E4842294996
:1076B00000F086EA0820205E2449903900F080EA34
:1076C0000A20205E2249903900F07AEA0C20205EE0
:1076D0002049903900F074EA10BD1CB51E4C002002
:1076E0000E23194A3B21009401906820FEF76AF8A6
:1076F0001A480078012802D100201849087000209B
:107700001CBD10B500200F4908700621144800F078
:1077100028EA10210C4800F024EA01221149002037
:10772000FEF7C0FF10490020FFF76EF810BD0120E2
:107730000A4908707047C046084800780028FBDCFA
:107740007047000081004000FC074000300140000D
:10775000A40240001804400081760000840040002C
:107760007A004000F07C0000DB76000000000000A2
:107770000000000000000000000000000000000009
:1077800010B501224E491000FEF78CFF0120FEF7D4
:1077900007FF10BD4B4840688021084349494860B5
:1077A0007047484840688021884346494860704790
:1077B00000B5444800688021084342490860080039
:1077C00000680121C90388433E49086008004068F9
:1077D0000121C90588433B494860FFF7DBFF00BD35
:1077E00000B539480078002818D038480078401C87
:1077F0003649087008000078012804D0642805D0B4
:10780000C8280AD105E0FFF7C5FF06E0FFF7C9FF6A
:1078100003E000202D490870C04620E02C48007885
:1078200000281AD029480078401C28490870080010
:107830000078002804D01E2805D03C280CD105E093
:10784000FFF7A8FF08E0FFF7ACFF05E0FFF7A2FF96
:1078500000201E490870C04601E0FFF79BFF00BDF5
:1078600010B504000020FEF7F0F9FDF799FC2006A2
:10787000000EFDF789FC10BD10B5FEF75DFC05207C
:10788000FEF7EEFC7020FEF7E3FD10BD10B5FEF72D
:1078900054FAE1204002FFF71AF8FFF7EDFFFFF777
:1078A0006FFF0C490020FDF785FE7D20C001FFF72A
:1078B00047FBFFF77DFF0420FFF7D2FF10BD00005C
:1078C000FFFF00000005F000900040009400400021
:1078D00051004000E004070000000000000000002C
:1078E00000B589B021480068401C20490860132178
:1078F000684601710021417181710921C1711C48E3
:1079000000F04EE90104091468460181194800F0AD
:1079100048E90104091468464181174800F040E92C
:10792000404201040914684681811248903000F0F9
:1079300038E94042010409146846C1810C4890307E
:1079400000F02EE901040914684601820A489030CB
:1079500000F026E9404201040914684641822022D1
:1079600001A95020FEF7DEFD09B000BD9C004000DB
:1079700014024000A0004000880340000000000006
:1079800030B5441C03E00178401C00290DD081076C
:10799000F9D10B4BDD0104C8D11A91432940FAD02B
:1079A000001B0A0603D0C01E30BD001B30BD0A04F8
:1079B00001D0801E30BD0902FCD0401E30BD000049
:1079C00001010101000000000000000000000000B3
:1079D00000000000000000000000000000000000A7
:1079E000030052E32A00009A03C010E20800000AD4
:1079F0000130D1E402005CE30C2082E001C0D194AC
:107A00000130C0E40130D13401C0C094042042E20E
:107A10000130C034033011E22800000A042052E291
:107A20001B00003A03C031E7020053E30800000ADC
:107A30000F00008A2C34A0E104C0B1E5042052E21A
:107A40000C3C83E1043080E4F9FFFF2A011081E25D
:107A50000F0000EA2C38A0E104C0B1E5042052E296
:107A60000C3883E1043080E4F9FFFF2A021081E240
:107A7000070000EA2C3CA0E104C0B1E5042052E27A
:107A80000C3483E1043080E4F9FFFF2A031081E223
:107A90000000A0E1822FB0E10130D12401C0D12447
:107AA0000120D1440130C02401C0C0240120C044C1
:107AB0001EFF2FE100000000000000000000000099
:107AC00010402DE9202052E20500003A1850B1E89C
:107AD000202052E21850A0E81850B1E81850A0E851
:107AE000F9FFFF2A02CEB0E11850B1281850A028A3
:107AF0001800B1481800A0481040BDE802CFB0E11E
:107B000004309124043080241EFF2F01822FB0E125
:107B1000B230D1200120D144B230C0200120C04475
:107B20001EFF2FE100000000000000000000000028
:107B30000000000000000000000000000000000045
:107B4000FF3002E2032483E1022882E1040000EA1C
:107B50000000000000000000000000000000000025
:107B60000020A0E3040051E30700003A03C010E244
:107B70007B00000A04C06CE202005CE30120C01438
:107B80000C1041E0B220C0A0750000EA81CFB0E146
:107B90000120C0240120C0240120C0441EFF2FE189
:107BA0000120D0E50010D0E50230D0E50300D0E59B
:107BB000021481E1031881E1000C81E11EFF2FE135
:107BC0002024A0E10000C1E50120C1E52028A0E1BA
:107BD0000220C1E5202CA0E10320C1E51EFF2FE11A
:107BE000013090E12100004A0020B0E3A03071E0B4
:107BF0001A00003A203271E00F00003A203471E0A0
:107C00000100003A00C0A0E3200000EAA03371E0C8
:107C1000810340200220B2E0203371E001034020C4
:107C20000220B2E0A03271E0810240200220B2E0E6
:107C3000203271E0010240200220B2E0A03171E068
:107C4000810140200220B2E0203171E0010140209A
:107C50000220B2E0A03071E0810040200220B2E0BA
:107C6000011050E00010A0310200A2E01EFF2FE141
:107C7000022111E20010614240C032E000006022A7
:107C8000203271E01D00003A203471E00F00003A0C
:107C90000113A0E1203471E03F2382E30B00003A9E
:107CA0000113A0E1203471E03F2682E30700003A8F
:107CB0000113A0E1203471E03F2982E30113A021E8
:107CC0003F2C8223003071E21D00002A2113A021E5
:107CD000A03371E0810340200220B2E0203371E044
:107CE000010340200220B2E0A03271E08102402076
:107CF0000220B2E0203271E0010240200220B2E016
:107D0000A03171E0810140200220B2E0203171E019
:107D1000010140200220B2E0EBFFFF2AA03071E019
:107D2000810040200220B2E0011050E00010A0319C
:107D30000200A2E0CCCFB0E100006042001061225E
:107D40001EFF2FE1CCCFB0E10000604201402DE9E1
:107D50000000B0E30000A0E10280BDE800000000E8
:107D60000020A0E300402DE90230A0E102C0A0E124
:107D700002E0A0E1201051E20C50A0280C50A028F5
:107D800020105122FBFFFF2A011EB0E10C50A02859
:107D90000C00A0480040BDE80111B0E1042080249F
:107DA0001EFF2F01B220C040010111E30120C014C9
:107DB0001EFF2FE100000000000000000000000096
:107DC0000E50A0E11D0000EB05E0A0E10050B0E185
:107DD0000D10A0E10A30A0E10700C0E300D0A0E14F
:107DE00060D08DE220402DE9460000EB2040BDE848
:107DF0000060A0E30070A0E30080A0E300B0A0E377
:107E00000710C1E305C0A0E1C009ACE8C009ACE8B7
:107E1000C009ACE8C009ACE801D0A0E11EFF2FE129
:107E200010B50400C046C0462000FCF7EEEF10BDC0
:107E30000000000000000000000000000000000042
:107E400000009FE51EFF2FE10C084000000000002D
:107E50000000000000000000000000000000000022
:107E600001491820ABDFFEE72600020000000000F9
:107E70000000000000000000000000000000000002
:107E80001EFF2FE1000000000000000000000000C5
:107E900000000000000000000000000000000000E2
:107EA0000020B0E3203171E069FFFF3AA03271E0B9
:107EB0005EFFFF3A203471E053FFFF3A00C0A0E3B9
:107EC00072FFFFEA00000000000000000000000058
:107ED00000000000000000000000000000000000A2
:107EE0000205A0E30110A0E3001080E50010A0E36C
:107EF000041080E56FEFFFEB00000FE1C000C0E36E
:107F000000F021E17DF3FFEA04009FE51EFF2FE171
:107F1000FEFFFFEA6C0840000000000000000000C7
:107F200001C05EE50C0053E10100003A0C30DEE7D1
:107F3000000000EA0330DEE783C08EE01CFF2FE183
:107F4000010030E1021121429701004A012050E076
:107F50000200403002108130A02BA0E1FFC4A0E35A
:107F600081001CE1020C3C11A13B42E01C00000A14
:107F700002C1A0E300048CE101148CE131C390E064
:107F80000E00002A012042E22C04B0E1820BA0E0A6
:107F90001EFF2F317F001CE380C0A0E1FF045C13B3
:107FA0001EFF2F31203063E21113B0E10100C00346
:107FB000FF045CE31EFF2F31060240E24F0100EA9E
:107FC0006C00A0E12004B0E1820BA0E0FF001C23C4
:107FD00080C0A0E1F2FFFF0AFF045C131EFF2F31F7
:107FE000F4FFFFEA020C3CE10200000AAC0010E1E1
:107FF000020100021EFF2FE110402DE9170100EBE6
:1080000064FBBE3E00000000000000000000000015
:108010000000000000000000000000000000000060
:10802000C000B0E103016052C110B0E10311615220
:10803000000051E100000FE11EFF2FE100000000F1
:10804000FFC8A0E3A0231CE0A1331C100C003211D8
:108050000C0033114200000A010030E102C580E348
:10806000020581E3FF14CCE3FF04C0E300402DE9E7
:1080700011CE8FE2A0E85CE7012C8243000051E1C1
:10808000000060E28EE0A0E1032042E0900E0CE0F0
:108090008110A0317D2882E24CC2A0E14228A2E0FA
:1080A0009C0E03E08EE3A0E121C4A0E18115A0E1D4
:1080B000C3EA8EE09E0C0CE02C3AA0E1901321E084
:1080C00021C4A0E10116A0E19E0C0CE00040BDE837
:1080D000ACC9A0E1901C21E0000071E100108120FA
:1080E0000336ACE0811090E0820BA3E03F0752E33F
:1080F0001EFF2F311400005AF00012E30602801216
:10810000020100121EFF2FE1008182838485868791
:1081100088898B8C8D8E8F919293959697999A9C46
:108120009D9FA0A2A3A5A7A8AAACAEB0B2B3B5B7B5
:10813000B9BCBEC0C2C5C7C9CCCED1D4D7D9DCDF8B
:10814000E2E6E9ECF0F3F7FAFE00000080C0A0E1FF
:1081500001C48CE2FE045CE31EFF2F21060250E204
:10816000E60000EA010030E1012C82430C0052E1FC
:10817000A1330CE00C0053310400002AFF0813E384
:108180000C00000A010020E0020100E21EFF2FE1C6
:1081900010402DE9B10000EB097EFC3E020000EA30
:1081A000010020E0020100E21EFF2FE1010020E0BB
:1081B000020100E2D10000EAFF0812E308009F0577
:1081C0001EFF2F01010020E0CC0000EA0000C07F6C
:1081D000000000000000000000000000000000009F
:1081E000A01BB0E19E2071E2030000BA0034A0E1C0
:1081F000023183E33302A0E11EFF2FE1000010E112
:108200000400005A8010A0E17F0451E30100002A1D
:108210000000A0E31EFF2FE110402DE98F0000EBCE
:10822000922449800000A0E31EFF2FE14000E0E11E
:108230001EFF2FE100000000000000000000000011
:10824000021110E200006042103F6FE11023B0E124
:108250009D3063E21EFF2F01831B91E1823CB0E160
:108260002204A1E01EFF2F310100C0031EFF2FE1F9
:1082700000000000000000000000000000000000FE
:10828000103F6FE11023B0E19D3063E21EFF2F012C
:10829000831BB0E1823CB0E12204A1E01EFF2F313C
:1082A0000100C0031EFF2FE10000000000000000DD
:1082B00000000000000000000000000000000000BE
:1082C00001C090E10C00004A02057CE302055C530A
:1082D0000100004A010050E11EFF2FE10400007A76
:1082E000020570E3020571530F00004A010050E1DE
:1082F0001EFF2FE1010051E11EFF2FE102057CE38B
:108300000300005A02055CE3F9FFFF5A000051E147
:108310001EFF2FE101C4A0E380007CE181007C31DD
:108320000100002A000051E11EFF2FE110402DE95D
:108330004A0000EB922449000202A0E30112A0E3EC
:1083400036FFFFEA0000000000000000000000000F
:10835000000000000000000000000000000000001D
:10836000FFC8A0E3A0231CE0A1331C100C003211B5
:108370000C0033112000000A010030E102C1A0E32B
:10838000012C824300048CE101148CE1032082E083
:10839000901183E0022542E2000051E30130831393
:1083A0008330B0E14228A2E06330A02123C4B0E1D1
:1083B0007F001323820BACE03F0752131EFF2F31C7
:1083C0000100C0033F0752E31EFF2F310500005A92
:1083D000FF2022E2010872E31EFF2FC1060280E2A5
:1083E000020100D21EFF2FE102C580E28CC0B0E185
:1083F0001EFF2F41060250E2400000EA010030E17A
:10840000012C82430C0052E1A1330CE00C005331EB
:108410000200002A010020E0020100E21EFF2FE11D
:1084200010402DE90D0000EB8900013E030000EA39
:10843000040000EA81C0B0E12CCCB0E10400000AE5
:10844000010020E02D0000EA80C0B0E12CCCB0E1BA
:10845000FAFFFF1A0201A0E3010540E21EFF2FE12F
:1084600004409EE4040014E10200004A8120A0E1DF
:10847000FF0452E30900008A8030A0E1FF0453E3C7
:108480000600008A0700001AA0CFA0E1FF0452E313
:108490008CC08CE002C08CE2A1CFAC00020000EAEC
:1084A00008C0A0E3000000EAA1CFA0E18C308CE07E
:1084B0003443A0E1074004E204C054E20200002A71
:1084C00004C18EE01040BDE81CFF2FE10CF18FE0ED
:1084D0000000A0E1040000EA040000EAFFFFFFEA58
:1084E0000201A0E3010540E21080BDE80100A0E127
:1084F0008020B0E101247212020100821080BDE8E8
:10850000FF10B0E3A00B81E1800BB0E11EFF2FE173
:10851000000000000000000000000000000000005B
:1085200000C091E10C00004A02057CE302055C53A7
:108530000100004A000051E11EFF2FE10400007A13
:10854000020571E3020570530F00004A000051E17B
:108550001EFF2FE1010051E11EFF2FE102057CE328
:108560000300005A02055CE3F9FFFF5A010050E1E5
:108570001EFF2FE101C4A0E381007CE180007C317B
:108580000100002A010050E11EFF2FE1010020E060
:10859000001021E0010020E063FFFFEA000000007E
:1085A000010030E10211214267FEFF4A012050E044
:1085B000022122320200403002108130A02BA0E1C3
:1085C000FFC4A0E381001CE1020C3C11A13B42E08E
:1085D0002800000A02C1A0E300048CE101148CE130
:1085E00031C350E00800004AFE0012E38C00B011D5
:1085F0001000005A4004B0E1820BA0E01EFF2F31B2
:108600003F001CE31EFF2F11050000EA012042E29B
:108610002C04B0E1820BA0E01EFF2F317F001CE391
:108620001EFF2F11203063E21113B0E10100401250
:108630000100C0031EFF2FE12234A0E10A00000A5E
:108640002001B0E11EFF2F0110CF6FE10C2042E0AE
:1086500028C06CE2700CA0E1220433E1820B8000A0
:108660001EFF2F01830FA0E11EFF2FE1AC03B0E13D
:108670001EFF2F01FAFFFFEA020C3CE10200000A94
:10868000AC0010E10000A0031EFF2FE110402DE917
:1086900072FFFFEB40DFF63E020121E21EFF2FE1F9
:1086A0001F0000001B00000073000000000000001D
:1086B00036000000B4000000800000002800000028
:1086C000AA000000BB000000CC0000000000000079
:1086D00000000000AA000000BB000000CC00000069
:1086E0000000000001000000AA000000BB00000024
:1086F000CC0000000000000001000000AA00000003
:10870000BB000000CC0000000000000002000000E0
:10871000AA000000BB000000CC0000000000000028
:1087200003000000FB251004CC36F96141340841F8
:1087300000EC1F8090E6917FCB0A49050F122B3D7C
:108740000A48000028A0A407007C40180822030063
:108750000000000000000000000000000000000019
:108760000000000000000000000000000000000009
:1087700000000000000000000000000000000000F9
:1087800000000000000000000000000000000000E9
:1087900000000000000000000000000000000000D9
:1087A000000000007779A50000E595021100009611
:1087B000000000A0800700000000300400080058FE
:1087C00000F10800000003030011000054406A405B
:1087D000000000000000000041B43800000000006C
:1087E00000000000A310611D6A0200008080FFFFEE
:1087F0009B020000000000000000000000000000DC
:108800000000000011801C36008400C00000000041
:108810008012543F1E052897148DFD83878F828315
:108820001B81000000000001020405070A0C0F1262
:10883000161A1E22262B30353A40454B51575D63A0
:108840006970767C83898F969CA2A8AEB4BABFC5A6
:10885000CACFD4D9DDE1E5E9EDF0F3F5F8FAFBFD97
:10886000FEFFFFFF1C0081003000810044008100FA
:10887000480081004C008100500081000000000091
:10888000010000000A00000064000000E80300008E
:1088900010270000A086010040420F00809698003B
:1088A00000E1F50500CA9A3B00000000000000004E
:1088B00000000000000000000000000000000000B8
:1088C000050400030000000000000000000000009C
:1088D0000000000000000000000000000000000098
:1088E0000104104002082080000000000000000089
:1088F0000000000000000000000000000000000078
:10890000208900002000400080000000604D000031
:10891000A0890000A0004000CC080000A04D00008D
:108920000000000000000000000000000000000047
:108930000000000000000000000000000000000037
:108940000000000000000000000000000000000027
:108950000000000000000000000000000000000017
:108960000000000000000000000000000000000007
:1089700000000000000000000000000000000000F7
:1089800000000000000000000000000000000000E7
:1089900000000000000000000000000000000000D7
:0400000500003C605B
:00000001FF
