:020000040800F2
:100000000006002009000008DFF81400016841F430
:100010007001016072B60348804703480047000042
:1000200088ED00E0310600082D00000800F002F81D
:1000300000F02DF80AA090E8000C82448344AAF155
:100040000107DA4501D100F022F8AFF2090EBAE853
:100050000F0013F0010F18BFFB1A43F001031847FC
:100060000408000014080000103A24BF78C878C1C2
:10007000FAD8520724BF30C830C144BF04680C60AE
:100080007047002070471FB51FBD10B510BDDFF8C9
:1000900010D0FFF7F8FF00F05BFB00F049F900001B
:1000A0000006002003B4FFF7F0FF03BC00F0F7FAEE
:1000B00072B62C482C49026841EA020101602B48C3
:1000C0004FF0010101602A484168016001688A8897
:1000D0004FF0100342EA03028A80D1F800C00CF10D
:1000E000240CBCE8FF008CF309884FF0020C8CF361
:1000F0001488AE4662B63047EFF3108072B6704790
:10010000EFF3108062B6704780F31088704719488B
:100110004FF0805101607047EFF3108C72B6164AB1
:10012000126822B12DE900509047BDE80050EFF36E
:10013000098020E9F01F0E4D4FF010082E68306046
:10014000B78827EA0807B78068682860878847EA81
:10015000080787800168B1E8F01F81F309888CF3F4
:100160001088704720ED00E00000FFFF5C060020D3
:100170002406002004ED00E0600600207047000027
:100180000FB4044910B503AA029800F0A3F810BCFC
:100190005DF814FB180600202DE9F05F894604463F
:1001A0004FF0000ADFF824B1FB44C0F820A020463D
:1001B000E168884700287DD0252806D0D4E90121B0
:1001C0009047206A401C2062F1E700255F462046E8
:1001D000E16888472028064607DB312E05D2B8198A
:1001E00010F8200C08B10543F1E7A80701D525F068
:1001F0000405C4F81CA00027C4F818A02A2E09D0B2
:10020000304600F045FA38B304EB8708303EC8F8B2
:10021000186019E059F8041B204604EB870291612D
:10022000E1688847012F064618D1E069002820DAE6
:1002300025F020051DE0D8F8180000EB800006EB43
:1002400040003038C8F818002046E1688847064664
:1002500000F01EFA0028EED1012F0AD02E2E08D170
:100260002046E16888477F1C0646022F45F020059E
:10027000C4DBA069002803DA404245F00105A06113
:10028000E80701D025F01005A6B1A6F14100192814
:1002900002D8203645F400654A463146204625609E
:1002A0004D46FFF7EEFE60B1012807D0ED1D25F0A9
:1002B000070000E007E000F1080978E705F104090C
:1002C00075E730467AE7206ABDE8F09FA406000093
:1002D00070470000074B70B50D467B4400F011F8E5
:1002E0000446284600F020F810B14FF0FF3070BDF2
:1002F000204670BD5704000001694A1C026108785D
:10030000704700B58FB0CDE9013100210591054955
:100310007944CDE9031011466846FFF73DFF0FB061
:1003200000BD0000E5FFFFFF007B00F0800070478C
:1003300010B50446AFF300802046BDE81040FFF73B
:10034000B1BE2DE9F0410246002500260020002321
:100350000024002791F803C00CF00F0591F803C0AA
:100360000CF0100CBCF1000F03D091F802C04CEA65
:10037000050591F800C0BCF1000F31D014680020D1
:100380002BE04FF0010C0CFA00F3B1F800C00CEABE
:1003900003069E4220D183004FF00F0C0CFA03F7A6
:1003A000BC4305FA03FC4CEA040491F803C0BCF119
:1003B000280F06D14FF0010C0CFA00FCC2F814C053
:1003C0000AE091F803C0BCF1480F05D14FF0010CD1
:1003D0000CFA00FCC2F810C0401C0828D1D31460ED
:1003E000B1F800C0BCF1FF0F34DD546800202EE0EE
:1003F00000F1080C4FF0010808FA0CF3B1F800C046
:100400000CEA03069E4221D183004FF00F0C0CFA38
:1004100003F7BC4305FA03FC4CEA040491F803C05B
:10042000BCF1280F05D100F1080C08FA0CF8C2F84D
:10043000148091F803C0BCF1480F07D100F1080CFB
:100440004FF0010808FA0CF8C2F81080401C082888
:10045000CED35460BDE8F0810161704708B5012139
:10046000482000F04DF82020ADF8000010208DF855
:10047000030003208DF8020069460948FFF761FF79
:1004800020210748FFF7E8FF2020ADF8000069466B
:100490000448FFF756FF20210248FFF7DDFF08BDA3
:1004A000000C01400018014010B500F077F9044637
:1004B0004CB100BF06A0FFF763FE07A0FFF760FE88
:1004C00000BF204610BDFFF7F3FD2046FAE700000D
:1004D0005B4552525D2000006F735469636B537427
:1004E000617274206572726F720A000002490143E2
:1004F000024A1160704700000000FA050CED00E0B0
:1005000029B1064A92690243044B9A6104E0034A06
:1005100092698243014B9A617047000000100240CB
:1005200010B500F001F810BD0CB50020019000904E
:100530003348006840F480303149086000BF3048DB
:10054000006800F4003000900198401C0190009871
:1005500018B90198B0F5A06FF1D12948006800F4EE
:10056000003010B10120009001E0002000900098C0
:10057000012843D12348006840F010002149086059
:100580000846006820F0030008600846006840F054
:10059000020008601A4840681949486008464068E7
:1005A00048600846406840F48060486008464068FB
:1005B00020F47C1048600846406840F4E810486029
:1005C0000846006840F08070086000BF0C48006872
:1005D00000F000700028F9D00948406820F00300BE
:1005E000074948600846406840F00200486000BF84
:1005F0000348406800F00C000828F9D10CBD000049
:100600000010024000200240042808D14FF0E021F1
:10061000096941F004014FF0E022116107E04FF059
:10062000E021096921F004014FF0E02211617047D7
:1006300010B51348006840F00100114908600846F1
:100640004068104908400E494860084600680E4955
:1006500008400B4908600846006820F480200860C4
:100660000846406820F4FE0048604FF41F00886090
:10067000FFF756FF4FF000600449086010BD00000E
:10068000001002400000FFF8FFFFF6FE08ED00E05A
:1006900030380A2801D2012070470020704700BF7F
:1006A0007047000010B56FF00400FFF7ADFF0A4877
:1006B00000680A49B0FBF1F0094908700846007863
:1006C00000EB4001C1EBC0104FF6FF7101EAC00022
:1006D0000449088010BD00000006002000127A00C6
:1006E00014060020160600200146114A12884A43CB
:1006F0004FF0E0235A6100229A611A46126942F0D3
:1007000001021A6100BF4FF0E022106900F00102FF
:100710001AB100F48032002AF5D04FF0E0221269BD
:1007200022F001024FF0E0231A6100229A61704723
:100730001606002000BF054A128802F04002002A77
:10074000F9D0C2B2014B1B1D1A807047003801401E
:100750004FF4A060FFF7CAFEFFF7A4FFFFF77EFE8D
:10076000FFF7A2FE15E000200A49086001200A49AF
:10077000C1F894014FF49670FFF7B6FF01200549C8
:10078000086000200449C1F894014FF49670FFF707
:10079000ABFFE8E7948121420000234270B5254871
:1007A000006828B100BF23480068B0F57A7F01D205
:1007B000214870BD1F4800684FF47A71B0FBF1F01A
:1007C0001E49086000211E4A1160516019480068E6
:1007D0004FF47A72B0FBF2F1481EB0F1807F01D382
:1007E00001201BE0481E4FF0E022506150170F22FD
:1007F000002804DB1407250E124C255406E01407CC
:10080000260E114C00F00F052D1F665500BF00206D
:100810004FF0E02290610720106100200346012B79
:1008200002D10548801CC4E7012008490860002067
:10083000BFE7000000060020000400027806002048
:100840006806002000E400E018ED00E080060020CB
:100850000400000800000000000000020001000089
:10086000100000007408000800060020840000004A
:100870006800000800A24A04000000000000000018
:100880000102030406070809000000000000000040
:100890000000000000000000000000000000000058
:1008A0000000000000000000000000000000000048
:1008B0000000000000000000000000000000000038
:1008C0000000000000000000000000000000000028
:1008D0000000000000000000000000000000000018
:1008E0000000000000000000000000000000000008
:0808F000000000000000000000
:040000050800002DC2
:00000001FF
